:020000040800F2
:10000000903101208102000867050008A50400085E
:1000100065050008F3030008BD0A000800000000A1
:10002000000000000000000000000000C101000806
:10003000F5030008000000001D020008B9070008D1
:100040009B0200089B0200089B0200089B0200081C
:100050009B0200089B0200089B0200089B0200080C
:100060009B0200089B0200089B0200089B020008FC
:100070009B0200089B0200089B0200089B020008EC
:100080009B0200089B0200089B0200089B020008DC
:100090009B0200089B0200089B0200089B020008CC
:1000A0009B0200089B0200089B0200089B020008BC
:1000B0009B0200089B0200089B0200089B020008AC
:1000C0009B0200089B0200089B0200089B0200089C
:1000D0009B0200089B020008E50800089B0200083C
:1000E0009B0200089B0200089B0200089B0200087C
:1000F0009B0200089B0200089B0200089B0200086C
:100100009B0200089B0200089B0200089B0200085B
:100110009B0200089B0200089B0200089B0200084B
:100120009B0200089B0200089B0200089B0200083B
:100130009B0200089B0200089B0200089B0200082B
:100140009B0200089B0200089B0200089B0200081B
:100150009B0200089B0200089B0200089B0200080B
:100160009B0200089B0200089B0200089B020008FB
:100170009B0200089B0200089B0200089B020008EB
:100180009B0200089B0200089B0200089B020008DB
:100190009B0200089B0200089B0200089B020008CB
:1001A0009B0200089B0200089B020008DFF80CD0AD
:1001B00000F0B2F800480047DD0C00089031012043
:1001C0002C4B19680868B0E8F04F80F30988BFF33A
:1001D0006F8F4FF0000080F311887047000000001F
:1001E00008480068006880F308884FF0000080F33A
:1001F000148862B661B6BFF34F8FBFF36F8F00DF15
:1002000000BF00BF08ED00E0DFF80C00016841F41A
:1002100070010160704700BF88ED00E0EFF30980D6
:10022000BFF36F8F134B1A681EF0100F08BF20ED3D
:10023000108A20E9F04F106009B44FF0500080F3AD
:100240001188BFF34F8FBFF36F8F01F099FB4FF011
:10025000000080F3118809BC19680868B0E8F04F05
:100260001EF0100F08BFB0EC108A80F30988BFF3AE
:100270006F8F704728000020EFF305807047000063
:100280000648804706480047FEE7FEE7FEE7FEE730
:10029000FEE7FEE7FEE7FEE7FEE7FEE7E50700080C
:1002A000AD01000840EA01039B0703D009E008C93B
:1002B000121F08C0042AFAD203E011F8013B00F82B
:1002C000013B521EF9D27047D2B201E000F8012B77
:1002D000491EFBD270470022F6E710B513460A46C6
:1002E00004461946FFF7F0FF204610BD30B50B4617
:1002F000014600202022012409E021FA02F59D4256
:1003000005D303FA02F5491B04FA02F52844151E29
:10031000A2F10102F1DC30BD064C074D06E0E068B9
:1003200040F0010394E8070098471034AC42F6D33C
:10033000FFF740FF94240008B42400081CB50C48C3
:100340000621CDE9001000234FF4967209A10D4853
:1003500001F0F8FE06480521001FCDE9001000233A
:100360004FF4007208A10B4801F0ECFE1CBD000028
:10037000200000205461736B205553415254204398
:100380004D440000691700085461736B204B657978
:10039000000000001D1800087CB50121080200F0D3
:1003A00033F901208DF8040000228DF80620C402E4
:1003B00000948DF807008DF80520054D6946284604
:1003C00000F019F82146284600F06AF87CBD0000CC
:1003D0000020024010B54FF4407000F00BF900F01F
:1003E00093F800F061F8FFF7D7FFBDE8104000F088
:1003F00027BAFEE770472DE9F041002201274FF0B0
:10040000030C07FA02F50B682B40AB422CD10668AF
:1004100053000CFA03F4A64306600E79D0F800806E
:100420009E4046EA080606600E79012E01D0022E93
:1004300012D18668A64386604E79D0F808809E4027
:1004400046EA080686604668AE43466045688E798F
:100450009640B6B235434560C568A543C560CC79C2
:100460009C40C3681C43C460521C102AC9D3BDE819
:10047000F08110B54B07DB0E9A40C90800EB8100F4
:10048000016A0F249C40A1430162016A1143016289
:1004900010BD0246002012690A4200D001207047B8
:1004A00041837047FEE700001CB50121052000F0E4
:1004B000ABF80120009000208DF804008DF80700B3
:1004C00069460548FFF797FF4FF4005000906946D2
:1004D0000248FFF790FF1CBD0000024000080240E8
:1004E00070B504460D4629462046FFF7D2FF012885
:1004F00001D0002070BD29462046FFF7CAFF012821
:10050000F9D0012070BD00002DE9FC4101218020BF
:1005100000F07AF84FF48064009401208DF8040014
:1005200000218DF806108DF807008DF805100C4F8E
:1005300069463846FFF75FFF660000966946384611
:10054000FFF759FFA500009569463846FFF753FFAE
:1005500003481830048006800580BDE8FC81000057
:10056000001C0240FEE7704708B526208DF8000009
:1005700008208DF8010001208DF8030000208DF87F
:100580000200684600F002F808BD000030B50F23F5
:10059000C27801250178002A1FD0154A126802F49A
:1005A000E062C2F5E062C2F30722C2F10404D34064
:1005B0004278A24084781C401443220101F1E021DA
:1005C00081F80024007800F01F018D404009800070
:1005D00000F1E020C0F8005130BD01F01F0085405F
:1005E0004809800000F1E020C0F8805130BD0000D3
:1005F0000CED00E002490843024908607047000022
:100600000000FA050CED00E0054A002903D011684E
:100610000143116070471168814311607047000009
:1006200030380240054A002903D0116801431160A7
:1006300070471168814311607047000040380240E4
:1006400070B5244B196801F00C01234C00291ED011
:10065000224E04291DD008291DD00460196801F01C
:10066000F00109091E4A545C0168E14041601C68C0
:1006700004F4E054A40A145D21FA04F484601B68B5
:1006800003F460435B0BD25CD140C16070BD046079
:10069000E4E70660E2E70F4A121F1168C1F38055D4
:1006A000116801F03F0135B1B6FBF1F11468C4F3F4
:1006B0008814614305E0B4FBF1F11468C4F38814B5
:1006C00061431268C2F30142521C5200B1FBF2F1C5
:1006D0000160C3E7083802400024F40040787D013F
:1006E000000000201CB50021019100912E4A1068E5
:1006F00040F4803010604FF4A043106800F40030E4
:1007000000900198401C0190009810B901989842FF
:10071000F3D11068800302D50120009000E0009121
:10072000009801283FD120484030016841F08051B5
:1007300001601E49086840F4404008601A480830CB
:1007400003680360036843F400430360036843F4F1
:10075000A0530360041F164B2360136843F080739B
:10076000136013689B01FCD50A6842F480320A606A
:100770004A68D203FCD50A6842F400320A604A682B
:100780009203FCD50B4A40F205711160016821F01B
:1007900003010160016841F0020101600168C1F3D9
:1007A00081010229FAD11CBD0038024000700040CE
:1007B000195A4007003C024010B5502080F31188C0
:1007C000BFF34F8FBFF36F8F01F000FD18B10449E5
:1007D0004FF080500860002080F3118810BD0000A9
:1007E00004ED00E010B51248016841F470010160A9
:1007F0001048016841F0010101600E4A00210832F1
:10080000116002680C4B1A400260031D0B4A1A600B
:10081000026822F48022026006480C300160FFF773
:1008200061FF03494FF000608039086010BD00008F
:1008300088ED00E000380240FFFFF6FE1030002493
:1008400030B587B001210820FFF7DEFE0121480402
:10085000FFF7E8FE214D072206212846FFF709FE93
:10086000072205212846FFF704FE02218DF8191002
:1008700001228DF81B2000248DF81A408DF81810E5
:100880004021059105A92846FFF7B5FD20210591D6
:1008900005A92846FFF7AFFD4FF4E1300190ADF810
:1008A00010400C20ADF80E00ADF80C40ADF80A4039
:1008B000ADF808400A4C01A9204600F099F8FFF76E
:1008C00053FE012240F22551204600F076F8012126
:1008D000204600F03FF807B030BD0000000C024099
:1008E0000044004070B5144D40F22551284600F0F8
:1008F00044F8A0B1114EEC143480284600F0D6F82C
:100900000F490870B51E2C80641034800E480D49C4
:10091000006801F058FA2C800C4901200870094841
:100920000068002807D00A494FF080500860BFF3E4
:100930004F8FBFF36F8F70BD004400401A1C024000
:1009400010000020140000201800002011000020DA
:1009500004ED00E0002904D0818941F40051818137
:100960007047818921F4005181817047024600203F
:1009700012880A4200D00120704770B5002440F66A
:100980006A12C1F3421301F01F05012606FA05F2AF
:10099000012B0CD0022B0DD0838A1340090A8E4004
:1009A000008830400BB100B10124204670BD83891E
:1009B0001340F3E7038A1340F0E710B540F66A13DB
:1009C000C1F3421301F01F040121A140012B07D004
:1009D000022B07D014303AB102680A43026010BDFE
:1009E0000C30F8E71030F6E702688A43026010BD69
:1009F0007FB504460D46208A20F44051E88808431C
:100A00002082A08941F20C618843A9882A89114378
:100A10006A8902431143A181A08A20F44071A88908
:100A20000843A0826846FFF70BFE1E48844202D0AE
:100A30001D48844201D1039800E00298A18909046D
:100A400008D500EBC00101EB001029684900B0FB9C
:100A5000F1F007E000EBC00101EB0010296889000C
:100A6000B0FBF1F06422B0FBF2F109010B096FF069
:100A700018056B4300EB8300A3891D044FF032037C
:100A800007D503EBC000B0FBF2F000F0070008430D
:100A900006E003EB0010B0FBF2F000F00F0008439B
:100AA00020817FBD00100140001401408088C0F308
:100AB00008007047C1F3080181807047FEE700001D
:100AC0000FB4054B10B503A9044A029800F018F8BA
:100AD00010BC5DF814FB0000B90C00089C0000205D
:100AE00002E008C8121F08C1002AFAD170477047F7
:100AF000002001E001C1121F002AFBD17047000055
:100B00002DE9FF4F8BB09A460F460546002606E0BA
:100B100025280BD052460D9990476D1C761C2878DD
:100B20000028F5D10FB03046BDE8F08F0024A04674
:100B30000122604900E0044315F8013F203B02FA1E
:100B400003F00842F7D128782E2817D115F8010FA5
:100B500044F004042A280ED06FF02F022878A0F168
:100B6000300109290AD808EB880102EB410100EBAA
:100B700001086D1CF2E757F8048B6D1C2878692872
:100B80003ED006DC0028CDD063280BD0642804D1E9
:100B900036E0732810D075284BD052460D999047F7
:100BA000761C85E017F8040B8DF8000000208DF806
:100BB0000100E946012003E057F8049B4FF0FF30A5
:100BC00061074FF0000401D40AE0641C44450DDACB
:100BD0008442FADB19F804100029F6D106E0641CFF
:100BE0008442FCDB19F804100029F8D1264404E003
:100BF00019F8010B52460D999047641EF8D257E040
:100C000001CF4FF00A0B002802DA40422D2102E00A
:100C1000210504D52B218DF82410012103E0E107E3
:100C200005D02021F7E70DF1200908910CE0002103
:100C3000F9E701CF4FF00A0BF9E75946FFF756FBEA
:100C400001F1300209F8012D0028F6D1ADEB0900C1
:100C500000F1200B600701D44FF00108D84502DDF8
:100C6000A8EB0B0000E000208046002406E009A865
:100C70005246005D0D999047641C761C089884428A
:100C8000F5DB04E0302052460D999047761CB8F110
:100C90000001A8F10108F5DC05E019F8010B524646
:100CA0000D999047761CBBF10001ABF1010BF4DC10
:100CB0006D1C34E70928010070B50446064DA1B249
:100CC0002846FFF7F7FE80212846FFF74FFE002851
:100CD000F9D0204670BD00000044004000220421ED
:100CE000052000F0F7FE04490860FFF773FBFFF7EB
:100CF00025FB00F005FEFEE7240000202DE9F04171
:100D000004460F46174EF5683068001D00F028FCB9
:100D100038B9306890F82C1001208840316981433F
:100D20003161601C07D137B13168BDE8F041091D60
:100D30000D4800F04EBC2C4430684460AC4206D2F2
:100D40003168B06B091DBDE8F04100F02ABC316884
:100D5000706B091D00F025FCB06A844200D2B462B9
:100D6000BDE8F081280000205401002070B5044641
:100D700000F03CFC1D4DA868401CA860286810B11C
:100D8000686938B10CE02C60A868012808D100F02F
:100D900065F905E02868E16AC06A884200D82C60DD
:100DA000686A401C68626064E06A01212A698140C7
:100DB000114329610E4900EB800001EB8000211DE9
:100DC00000F007FC00F032FC686900280CD02868AD
:100DD000E16AC06A884207D206494FF08050086035
:100DE000BFF34F8FBFF36F8F70BD0000280000204E
:100DF000A000002004ED00E010B500F0F7FB0C4C63
:100E0000206880B90B4800F0BEFB0A48143000F09F
:100E1000BAFB0848E0601430206100220C210A204F
:100E200000F058FE2060BDE8104000F0FFBB00005D
:100E3000640000206801002070B50C4D0C4E11E0DC
:100E400000F0D4FBF068C468201D00F089FBA8689E
:100E5000401EA8606868401E686000F0E7FB2046FE
:100E600000F04AF868680028EAD170BD2800002028
:100E70004001002030B40B46026C002A0CD0C1683F
:100E80001144C1604468A14201D30168C160C168D6
:100E900030BC1846FFF706BA30BC70472DE9F04168
:100EA000044617460026A56B226C002A1FD07FB18E
:100EB000E068FFF7F7F9E168206C091AE160226841
:100EC000914202D26168081AE060022F0DD00EE054
:100ED000A068FFF7E7F9216CA0680844A06061688A
:100EE000884204D32068A06001E005B16D1E6D1C2E
:100EF000A5633046BDE8F08110B50446206B00F0D4
:100F0000ABFB2046BDE8104000F0A6BB0749CA680D
:100F10001168002904D00021016019B10020704738
:100F20000121F9E7D06800687047000064000020E4
:100F30004FF496310F48420706D0C01D20F007003D
:100F40000C49411AC1F596310B4A106000235360D9
:100F50000144083921F00701103A11604B600B6021
:100F60000B1A436001604068906050604FF0004091
:100F7000D06070479001002094000020074E4FF091
:100F80008054074DFFF758FF30680128FAD92C60CC
:100F9000BFF34F8FBFF36F8FF4E70000A000002076
:100FA00004ED00E070B51D46049C002909D02260C4
:100FB000E06321640121204600F0AEFD84F84C502E
:100FC00070BD2460F4E72DE9F0478146DDE908585B
:100FD0000A9C0E4617469A46B900A522206BFFF7D9
:100FE00073F9206B7F1E00EB870020F0070778075E
:100FF00007D0502080F31188BFF34F8FBFF36F8F5E
:10100000FEE700202218315C82F83410315C11B107
:10101000401C1028F6D3002684F84360052D00D329
:101020000425E562201D00F0B9FA04F1180000F073
:10103000B5FA2461C5F10500A0616462E66484F834
:10104000506052464946384600F078FA2060B8F1C0
:10105000000F01D0C8F80040BDE8F08770B500244B
:10106000124D04EB840005EB800000F08CFA641C48
:10107000052CF6D30D48643000F085FA0B48783023
:1010800000F081FA09488C3000F07DFA0748A03062
:1010900000F079FA0548B43000F075FA03490448C5
:1010A000643141631431816370BD0000A0000020F1
:1010B0002800002030B5134900E011460A6882423A
:1010C000FBD34B685C18844203D1406818444860E5
:1010D00008460D6844682318AB420DD1094B103BFC
:1010E0001B689A4206D05268224442600A6812681D
:1010F000026002E0036000E00260814200D008600C
:1011000030BD00009400002070B5002441600061F3
:101110000C4D91420AD8D11A8269914201D301241F
:101120000EE0011D286900F03CFA09E09A4203D262
:10113000994201D3012403E0011DE86800F031FA6F
:10114000204670BD6400002010B5044600F04EFA41
:10115000A06B20B1002400F069FA204610BD0124E4
:10116000F9E710B5044600F041FAA06BE16B884244
:1011700001D1012400E0002400F058FA204610BDFF
:10118000F8B505460E461448C068C068C468201DFE
:1011900000F0E6F9E069012810D1A0692B46411959
:1011A00032462046FFF7B0FF40B10020034601461B
:1011B00000902A46204601F039F928B1616A01B051
:1011C0002046BDE8F0400847502080F31188BFF367
:1011D0004F8FBFF36F8FFEE76400002030B585B0FE
:1011E0002B4D4BE00298002848DB049C606910B14D
:1011F000201D00F0B5F901A800F094F8024602980D
:101200000A283BD2DFE800F00505053A2637050538
:101210003A260398A169034601442046FFF774FF6C
:1012200000B3616A20468847E069012826D1002082
:1012300000900398A169002342181946204601F046
:10124000F5F878B9502080F31188BFF34F8FBFF3C2
:101250006F8FFEE70398A06128B1811813462046DE
:10126000FFF752FF0AE0502080F31188BFF34F8F41
:10127000BFF36F8FFEE7204600F0EEF9002202A9CF
:10128000286800F0EFFD0028ACD105B030BD0000AB
:1012900064000020F8B506460D4600F069FB68467C
:1012A00000F040F80446009810B101F033F8F8BDA2
:1012B00045B9A64206D801F02DF821463046FFF781
:1012C0005FFFF8BD0C481DB10169096891B10025A7
:1012D000311B2A46006800F023FA01F01BF80028B1
:1012E000EFD106494FF080500860BFF34F8FBFF336
:1012F0006F8FF8BD0125EBE76400002004ED00E0EE
:101300000748416B0968002905D0416BC968C96865
:101310004968816270474FF0FF3181627047000079
:101320002800002070B5054600F04AFF0446074E2D
:10133000B068844204D200F00BF80120286001E07C
:1013400000202860B460204670BD000064000020CA
:10135000F8B5194E1FE0C0680568C468201D00F08C
:10136000FFF8616A20468847E069012813D1A06927
:101370002844A84206D960602461211DF06800F06D
:1013800010F908E000200346014600902A46204656
:1013900001F04CF840B1F06801680029DBD1F06839
:1013A0003169F1603061F8BD502080F31188BFF3DE
:1013B0004F8FBFF36F8FFEE764000020094840683D
:1013C000401C07D0502080F31188BFF34F8FBFF32C
:1013D0006F8FFEE7502080F31188BFF34F8FBFF36C
:1013E0006F8FFEE77800002008B56846FFF78EFD96
:1013F0000099FFF74FFFFFF7F1FEF6E72DE9F04107
:10140000044600F0F3F894F9455004F1240609E08D
:10141000606A48B1304600F03FFF08B100F032FA90
:101420006D1E6DB2002DF3DC4FF0FF3684F8456081
:1014300000F0FCF800F0DAF894F9445004F11007D9
:1014400009E0206948B1384600F026FF08B100F0F5
:1014500019FA6D1E6DB2002DF3DC84F84460BDE80E
:10146000F04100F0E3B800002DE9F0410546002608
:1014700000F07EFA304F386808B9FFF759FDF86878
:1014800005424AD18DB1083568070ED005F0070036
:10149000C0F108000544680707D0502080F3118888
:1014A000BFF34F8FBFF36F8FFEE7B5B37868854208
:1014B00033D8214910310846046801E0214604462A
:1014C0006068A84202D220680028F7D138688442B8
:1014D00023D00E680836206808606068411B102918
:1014E0000ED96019420707D0502080F31188BFF34E
:1014F0004F8FBFF36F8FFEE741606560FFF7DAFD46
:1015000061687868401A7860BA68904200D2B86022
:10151000F868014361600020206000F0FBFE700766
:1015200007D0502080F31188BFF34F8FBFF36F8F28
:10153000FEE73046BDE8F0818400002024384FF0FB
:101540008073036221F00101C1610449816142603D
:101550006FF0020140F8201970470000BD13000829
:101560000169D0E901329A60D0E901235A604A68E2
:10157000824201D182684A60002202610868401EEE
:1015800008600868704700F1080141604FF0FF32C1
:101590008260C1600161002101607047002101612A
:1015A000704730B50C68621C02D000F1080202E0FE
:1015B000026904E01A4653681D68A542FAD95368C7
:1015C0004B6099608A60516008610168491C016044
:1015D00030BD42684A6093688B609368596091603F
:1015E00008610168491C016070470000502080F3C9
:1015F0001188BFF34F8FBFF36F8F0A494868401CB3
:10160000486001280CD10848006810F0FF0F07D08F
:10161000502080F31188BFF34F8FBFF36F8FFEE729
:10162000704700007800002004ED00E00949486898
:10163000002806D0401E4860002801D180F31188A0
:101640007047502080F31188BFF34F8FBFF36F8F27
:10165000FEE700007800002070B5002827D0083889
:101660000446134D6068E968084207D1502080F3B2
:101670001188BFF34F8FBFF36F8FFEE722683AB137
:10168000502080F31188BFF34F8FBFF36F8FFEE7B9
:101690008843606000F06CF96068696808446860BD
:1016A0002046FFF707FDBDE8704000F033BE70BD77
:1016B000840000204FF0E020002101618161024997
:1016C00041610721016170471FBF020010B5FEF79D
:1016D000D3FD114910280ED300F1E02090F8F0035B
:1016E0000A78904207D2502080F31188BFF34F8FC1
:1016F000BFF36F8FFEE709480068896800F4E06077
:10170000884207D9502080F31188BFF34F8FBFF371
:101710006F8FFEE710BD0000780000200CED00E0A8
:1017200070B504460D461646FFF760FF94F9443045
:101730004FF000005B1C01D184F8440094F945107F
:10174000491C01D184F84500FFF770FFA06B28B950
:101750003246294604F1240000F0B4F82046BDE8E2
:101760007040FFF74BBE000003220021012000F073
:10177000B1F9094C20604FF0FF3520680028FCD0FB
:1017800006A0FFF79DF92946206800F009FC07A094
:10179000FFF796F9F1E7000018000020B5C8B4FD86
:1017A000B6FED6B5D0C5BAC50A000000BBF1B5C3B8
:1017B000B6FED6B5D0C5BAC50A00000010B50246BF
:1017C0000020002A12D00F48006B38B1502080F35F
:1017D0001188BFF34F8FBFF36F8FFEE700F0C8F89B
:1017E00000211046FFF78AFA00F094FD002807D187
:1017F00005494FF080500860BFF34F8FBFF36F8FE4
:1018000010BD00002800002004ED00E002490A6A33
:101810000260C96841607047280000204FF40055FD
:10182000154E164C164F20E001213846FEF758FEA3
:101830000128F9D000231A461946206800F0B2F9B1
:1018400029463046FEF74CFE01280BD1294630468A
:10185000FEF746FE0128F9D000231A4619462068F3
:1018600000F0A0F91E20FFF7A9FF01213846FEF77E
:1018700037FE0128D8D0E3E7000802401800002016
:101880000000024001490120C86170472800002083
:1018900010B50C4600280AD0094909681831FFF72D
:1018A00080FE2046BDE810400121FFF727BA5020F6
:1018B00080F31188BFF34F8FBFF36F8FFEE70000F7
:1018C0002800002070B50D46144600280DD00B49A5
:1018D00009681831FFF77DFE0CB14FF0FF35214646
:1018E0002846BDE87040FFF709BA502080F3118800
:1018F000BFF34F8FBFF36F8FFEE70000280000207B
:101900001CB517480024CDE900402346802215A1CC
:10191000164800F017FC012801D100F061FD0128F4
:1019200009D0401C1AD1502080F31188BFF34F8F8B
:10193000BFF36F8FFEE7502080F31188BFF34F8F06
:10194000BFF36F8F06484FF0FF312C3881620121C1
:101950004161C460BDE81C4000F042B81CBD0000FD
:101960005400002049444C45000000007D0F000851
:101970000248016B491C01637047000028000020E9
:10198000154A106B002802D00120D061704700205A
:10199000D0611069B0FA80F0C0F11F000F4900EB70
:1019A000800051F8203073B101EB80004168496834
:1019B000416000F10803994201D1496841604068E3
:1019C000C06810607047502080F31188BFF34F8FBC
:1019D000BFF36F8FFEE7000028000020A00000206A
:1019E0001CB537480168374A914207D1502080F32F
:1019F0001188BFF34F8FBFF36F8FFEE70068314947
:101A0000491E884207D1502080F31188BFF34F8FC1
:101A1000BFF36F8FFEE72C4908780190FF20087014
:101A2000087800909DF800009DF8002000F0F0007C
:101A3000904207D0502080F31188BFF34F8FBFF33F
:101A40006F8FFEE79DF80000204A00F050001070F4
:101A50000720906006E09068401E90609DF80000AE
:101A6000400000909DF800000006F4D49068032820
:101A700007D0502080F31188BFF34F8FBFF36F8FD3
:101A8000FEE74FF440709060019808700C482030D9
:101A9000016841F470010160016841F0704101602A
:101AA000FFF708FE00205060FEF7AEFB0848016813
:101AB00041F040410160FEF793FB00201CBD000097
:101AC00000ED00E071C20F4100E400E0780000206A
:101AD00034EF00E0F8B505460E461746002D11D04C
:101AE000C6B105FB06F05030FFF7BEFC04463CB122
:101AF00004F150023B46314628460094FFF752FA63
:101B00002046F8BD502080F31188BFF34F8FBFF3FC
:101B10006F8FFEE70020E6E770B504460D46002C07
:101B200025D0FFF763FDD4E90F20216802FB0011E7
:101B300061600021A1632168A160E06B2268216CD3
:101B4000401E00FB0121E1604FF0FF3084F84400AB
:101B500084F8450004F110008DB1FFF714FD04F185
:101B60002400FFF710FDFFF761FD012070BD50203C
:101B700080F31188BFF34F8FBFF36F8FFEE72169AA
:101B80000029F0D000F088FB0028ECD004494FF089
:101B900080500860BFF34F8FBFF36F8FE3E7000003
:101BA00004ED00E02DE9FF4782B004468A461E4658
:101BB0000025002C03D0BAF1000F08D011E050200E
:101BC00080F31188BFF34F8FBFF36F8FFEE7206C58
:101BD00038B1502080F31188BFF34F8FBFF36F8F60
:101BE000FEE7022E0AD1E06B012807D0502080F3D7
:101BF0001188BFF34F8FBFF36F8FFEE700F0D2FA6B
:101C000048B9049838B1502080F31188BFF34F8F42
:101C1000BFF36F8FFEE74FF000094FF08057DFF8FA
:101C2000E480FFF7E3FCA06BE16B884205D3022E52
:101C300003D0049808B325B327E032465146204626
:101C4000FFF72CF9616A59B104F1240000F024FB7C
:101C500068B1C8F80070BFF34F8FBFF36F8F06E015
:101C600028B1C8F80070BFF34F8FBFF36F8FFFF735
:101C7000DDFC012006B0BDE8F087FFF7D7FC0020AF
:101C8000F8E76846FFF7C2FD0125FFF7CFFCFFF735
:101C90006FFEFFF7ABFC94F94400401C01D184F8BF
:101CA000449094F94500401C01D184F84590FFF719
:101CB000BDFC04A9684600F007FA30B12046FFF7E2
:101CC0009DFB00F027FB0020D4E72046FFF749FAF0
:101CD00090B104F110000499FFF7DAFD2046FFF7F8
:101CE0008DFB00F017FB00289BD1C8F80070BFF3F4
:101CF0004F8FBFF36F8F94E72046FFF77FFB00F015
:101D000009FB8EE704ED00E02DE9F0470446894623
:101D100090461F46002C03D0B9F1000F08D011E007
:101D2000502080F31188BFF34F8FBFF36F8FFEE712
:101D3000206C38B1502080F31188BFF34F8FBFF370
:101D40006F8FFEE7022F0AD1E06B012807D05020E9
:101D500080F31188BFF34F8FBFF36F8FFEE7FFF75C
:101D6000B5FC5020EFF3118680F31188BFF34F8F3D
:101D7000BFF36F8FA06BE16B884206D3022F04D0B4
:101D8000002086F31188BDE8F08794F945503A4663
:101D900049462046FFF782F8681C04D06D1C84F881
:101DA00045500120EDE7606A0028FAD004F12400D4
:101DB00000F072FA0028F4D0B8F1000FF1D0012041
:101DC000C8F80000EDE770B504460E46002C09D0B7
:101DD000206C78B1502080F31188BFF34F8FBFF390
:101DE0006F8FFEE7502080F31188BFF34F8FBFF352
:101DF0006F8FFEE7206848B9606838B1502080F3E3
:101E00001188BFF34F8FBFF36F8FFEE7FFF75EFCC4
:101E10005020EFF3118580F31188BFF34F8FBFF38C
:101E20006F8FA26BE06B904218D994F94500521C59
:101E3000A263411C04D0401C84F8450001200EE040
:101E4000606A0028FAD004F1240000F025FA002886
:101E5000F4D0002EF2D001203060EFE7002085F3AF
:101E6000118870BD2DE9F74783B004468A460026E5
:101E7000002C03D0BAF1000F08D011E0502080F3FD
:101E80001188BFF34F8FBFF36F8FFEE7206C38B11F
:101E9000502080F31188BFF34F8FBFF36F8FFEE7A1
:101EA00000F080F948B9059838B1502080F31188C6
:101EB000BFF34F8FBFF36F8FFEE700274FF08058BF
:101EC000DFF8D890FFF792FBA56BC5B151462046CD
:101ED000FEF7D0FF6D1EA563206950B104F110001C
:101EE00000F0DAF928B1C9F80080BFF34F8FBFF3D3
:101EF0006F8FFFF79BFB012006B0BDE8F0870598C8
:101F000008B126B107E0FFF791FB0020F4E701A834
:101F1000FFF77CFC0126FFF789FBFFF729FDFFF7A0
:101F200065FB94F94400401C01D184F8447094F995
:101F30004500401C01D184F84570FFF777FB05A9E7
:101F400001A800F0C1F858B12046FFF757FA00F099
:101F5000E1F92046FFF7F8F80028B3D00020CBE7DE
:101F60002046FFF7F1F890B104F124000599FFF73E
:101F70008FFC2046FFF742FA00F0CCF90028A1D1EF
:101F8000C9F80080BFF34F8FBFF36F8F9AE72046E9
:101F9000FFF734FA00F0BEF994E7000004ED00E02A
:101FA0002DE9F34182B004460025002C09D0206CB5
:101FB00078B1502080F31188BFF34F8FBFF36F8F3C
:101FC000FEE7502080F31188BFF34F8FBFF36F8F70
:101FD000FEE700F0E7F848B9039838B1502080F3E5
:101FE0001188BFF34F8FBFF36F8FFEE700264FF0CE
:101FF0008057DFF8D080FFF7F9FAA06BA0B1401E40
:10200000A063206950B104F1100000F045F928B137
:10201000C8F80070BFF34F8FBFF36F8FFFF706FB59
:10202000012004B0BDE8F081039808B125B107E0B4
:10203000FFF7FCFA0020F4E76846FFF7E7FB01250D
:10204000FFF7F4FAFFF794FCFFF7D0FA94F9440095
:10205000401C01D184F8446094F94500401C01D132
:1020600084F84560FFF7E2FA03A9684600F02CF80F
:1020700058B12046FFF7C2F900F04CF92046FFF7AF
:1020800063F80028B7D00020CBE72046FFF75CF8C4
:1020900090B104F124000399FFF7FAFB2046FFF703
:1020A000ADF900F037F90028A5D1C8F80070BFF3EA
:1020B0004F8FBFF36F8F9EE72046FFF79FF900F029
:1020C00029F998E704ED00E02DE9F04105460C46BA
:1020D000002D11D0C4B1FFF789FA194EF0686B6872
:1020E000C11A2268571C17D02F68366AB74215D01C
:1020F000834213D801241DE0502080F31188BFF3E0
:102100004F8FBFF36F8FFEE7502080F31188BFF32E
:102110004F8FBFF36F8FFEE700240BE08A4206D992
:10212000501A20602846FFF771FB002402E00020CF
:1021300020600124FFF77AFA2046BDE8F081000014
:10214000280000202DE9FF5F8146DDE90E788A46F0
:1021500016469B46B000FFF787F9054628000AD0CF
:102160005420FFF781F904460CB1256304E02846AA
:10217000FFF772FA00E000248CB10020CDE90240A4
:10218000CDE900785B46324651464846FEF71BFFD4
:102190002046FEF7EBFD012004B0BDE8F09F4FF0B4
:1021A000FF30F9E705484169002903D0006B18B1F9
:1021B000002070470120704702207047280000204F
:1021C0000148C06870470000280000202DE9F04158
:1021D00000262F4F386B002808D0B869401CB86122
:1021E000F86900B101263046BDE8F081FD686D1C3C
:1021F000FD609DB9786B006838B1502080F311887C
:10220000BFF34F8FBFF36F8FFEE7786BB96B7963C6
:10221000B863386A401C3862FFF772F8B86ADFF8B2
:10222000748085420DD3786B006838B1786BC068D4
:10223000C468606885420ED2B86202E04FF0FF3099
:10224000B8623868C06A00EB800058F820000128A6
:10225000C6D90126C4E7201DFFF782F9A06A18B18C
:1022600004F11800FFF77CF9E06A01213A69814026
:102270001143396100EB800008EB8000211DFFF75E
:10228000A8F9E06A3968C96A8842CCD30126CAE74E
:1022900028000020A00000202DE9F041C068C4689B
:1022A000002C15D004F118000746FFF759F9174D17
:1022B0002A6B0126A2B139461548FFF78AF9E06A70
:1022C0002968C96A88421ED90120EE61BDE8F08103
:1022D000502080F31188BFF34F8FBFF36F8FFEE75D
:1022E000201DFFF73DF9E06A2A6906FA00F1114363
:1022F0002961074900EB80008C3901EB8000211D2A
:10230000FFF767F9DBE70020E0E700002800002086
:102310002C0100202DE9F041002400272D4D286BD1
:10232000002807D0FFF762F9286B401E2863286B4E
:1023300040B14AE0502080F31188BFF34F8FBFF3C4
:102340006F8FFEE7A868E8B3DFF88C8001261EE0F7
:10235000D8F80C00C46804F11800FFF701F9201D3B
:10236000FFF7FEF8E06A2A6906FA00F111432961D5
:10237000194900EB80008C3901EB8000211DFFF72B
:1023800028F9E06A2968C96A884200D3EE61D8F862
:1023900000000028DCD10CB1FEF7B2FFAC6944B1FB
:1023A000FFF714FF00B1EE61641E002CF8D100208D
:1023B000A861E86930B10127084938070860BFF310
:1023C0004F8F00E001E0BFF36F8FFFF72FF9384622
:1023D000BDE8F081280000202C01002004ED00E081
:1023E0001CB50024FEF708FD0C48006858B10B48E6
:1023F0000221001DCDE90010CA01002308A10A48EE
:10240000FFF7A0FE04460CB120461CBD502080F30F
:102410001188BFF34F8FBFF36F8FFEE7640000207A
:10242000546D722053766300E9130008FEB506462A
:10243000089F9C460020002E13D0154D2C68002CC0
:102440000ED0009101920296062919DAFFF7AAFE32
:1024500002280ED000231A4669462868FFF7A2FB1F
:10246000FEBD502080F31188BFF34F8FBFF36F8FF5
:10247000FEE700233A4669462868FFF793FBFEBD56
:102480000023624669462046FFF73EFCFEBD000081
:1024900064000020B424000800000020A000000018
:1024A000E00A000854250008A0000020F0300100D8
:1024B000F00A000800000000010203040102030406
:1024C00006070809000000000000000000000000EE
:1024D00000000000000000000000000000000000FC
:1024E00000000000000000000000000000000000EC
:1024F00000000000000000000000000000000000DC
:1025000000000000000000000000000000000000CB
:1025100000000000000000000000000000000000BB
:1025200000000000000000000000000000000000AB
:10253000AAAAAAAA000000000000000000000000F3
:10254000000000000000000000000000000000008B
:042550000000000087
:04000005080001AD41
:00000001FF
