:020000040800F2
:100000008831012081020008570600089505000884
:1000100055060008E3040008750B00080000000006
:10002000000000000000000000000000C101000806
:10003000E5040008000000001D020008B1080008E7
:100040009B0200089B0200089B0200089B0200081C
:100050009B0200089B0200089B0200089B0200080C
:100060009B0200089B0200089B0200089B020008FC
:100070009B0200089B0200089B0200089B020008EC
:100080009B0200089B0200089B0200089B020008DC
:100090009B0200089B0200089B0200089B020008CC
:1000A0009B0200089B0200089B0200089B020008BC
:1000B0009B0200089B0200089B0200089B020008AC
:1000C0009B0200089B0200089B0200089B0200089C
:1000D0009B0200089B020008DD0900089B02000843
:1000E0009B0200089B0200089B0200089B0200087C
:1000F0009B0200089B0200089B0200089B0200086C
:100100009B0200089B0200089B0200089B0200085B
:100110009B0200089B0200089B0200089B0200084B
:100120009B0200089B0200089B0200089B0200083B
:100130009B0200089B0200089B0200089B0200082B
:100140009B0200089B0200089B0200089B0200081B
:100150009B0200089B0200089B0200089B0200080B
:100160009B0200089B0200089B0200089B020008FB
:100170009B0200089B0200089B0200089B020008EB
:100180009B0200089B0200089B0200089B020008DB
:100190009B0200089B0200089B0200089B020008CB
:1001A0009B0200089B0200089B020008DFF80CD0AD
:1001B00000F0CEF800480047090E00088831012001
:1001C0002C4B19680868B0E8F04F80F30988BFF33A
:1001D0006F8F4FF0000080F311887047000000001F
:1001E00008480068006880F308884FF0000080F33A
:1001F000148862B661B6BFF34F8FBFF36F8F00DF15
:1002000000BF00BF08ED00E0DFF80C00016841F41A
:1002100070010160704700BF88ED00E0EFF30980D6
:10022000BFF36F8F134B1A681EF0100F08BF20ED3D
:10023000108A20E9F04F106009B44FF0500080F3AD
:100240001188BFF34F8FBFF36F8F01F0F7FC4FF0B2
:10025000000080F3118809BC19680868B0E8F04F05
:100260001EF0100F08BFB0EC108A80F30988BFF3AE
:100270006F8F704720000020EFF30580704700006B
:100280000648804706480047FEE7FEE7FEE7FEE730
:10029000FEE7FEE7FEE7FEE7FEE7FEE7DD08000813
:1002A000AD01000840EA01039B0703D009E008C93B
:1002B000121F08C0042AFAD203E011F8013B00F82B
:1002C000013B521EF9D27047D2B201E000F8012B77
:1002D000491EFBD270470022F6E710B513460A46C6
:1002E00004461946FFF7F0FF204610BD2DE9F05FE8
:1002F0000546002092469B46884606468146402495
:100300001BE0284641464746224600F042F8534645
:100310005A46C01A914110D311461846224600F0A1
:1003200029F82D1A67EB01084F46224601200021CB
:1003300000F020F817EB00094E41201EA4F1010443
:10034000DFDC484631462A464346BDE8F09F0000C0
:10035000064C074D06E0E06840F0010394E8070012
:1003600098471034AC42F6D3FFF724FF8C250008E1
:10037000AC250008202A04DB203A00FA02F1002014
:1003800070479140C2F1200320FA03F319439040D3
:100390007047202A04DB203A21FA02F0002170473E
:1003A00021FA02F3D040C2F12002914008431946DD
:1003B000704700007CB51A480421CDE900100023E5
:1003C0004FF4967217A11A4801F038FF144805211E
:1003D000001DCDE9001000234FF4007215A118484C
:1003E00001F02CFF00240825CDE900544FF47A7663
:1003F0006423324613A1184801F020FFCDE90054D0
:10040000C823324615A1144801F018FF0920CDE990
:1004100000040023324616A11A4801F00FFF7CBDEC
:10042000180000205461736B204C6564310000009B
:10043000891900085461736B204B65790000000036
:100440002D1900085461736B2071756575652073F3
:10045000656E646572310000E51A00085461736BC3
:100460002071756575652073656E64657232000074
:100470005461736B2071756575652072656365697C
:1004800076650000291A00087CB50121080200F0F9
:1004900037F901208DF8040000228DF80620C402EF
:1004A00000948DF807008DF80520054D6946284613
:1004B00000F019F82146284600F06AF87CBD0000DB
:1004C0000020024010B54FF4407000F00FF900F02A
:1004D00093F800F061F8FFF7D7FFBDE8104000F097
:1004E0002BBAFEE770472DE9F041002201274FF0BB
:1004F000030C07FA02F50B682B40AB422CD10668BF
:1005000053000CFA03F4A64306600E79D0F800807D
:100510009E4046EA080606600E79012E01D0022EA2
:1005200012D18668A64386604E79D0F808809E4036
:1005300046EA080686604668AE43466045688E799E
:100540009640B6B235434560C568A543C560CC79D1
:100550009C40C3681C43C460521C102AC9D3BDE828
:10056000F08110B54B07DB0E9A40C90800EB810003
:10057000016A0F249C40A1430162016A1143016298
:1005800010BD0246002012690A4200D001207047C7
:1005900041837047FEE700001CB50121052000F0F3
:1005A000AFF80120009000208DF804008DF80700BE
:1005B00069460548FFF797FF4FF4005000906946E1
:1005C0000248FFF790FF1CBD0000024000080240F7
:1005D00070B504460D4629462046FFF7D2FF012894
:1005E00001D0002070BD29462046FFF7CAFF012830
:1005F000F9D0012070BD00002DE9FC4101218020CF
:1006000000F07EF84FF48064009401208DF804001F
:1006100000218DF806108DF807008DF805100C4F9D
:1006200069463846FFF75FFF660000966946384620
:10063000FFF759FFA500009569463846FFF753FFBD
:1006400003481830048006800580BDE8FC81000066
:10065000001C0240FEE7704708B54FF4407000F000
:1006600045F826208DF800000A208DF801000120B1
:100670008DF8030000208DF80200684600F002F8B3
:1006800008BD000030B50F23C27801250178002A8B
:100690001FD0154A126802F4E062C2F5E062C2F3AC
:1006A0000722C2F10404D3404278A24084781C405F
:1006B0001443220101F1E02181F80024007800F0C8
:1006C0001F018D404009800000F1E020C0F800517A
:1006D00030BD01F01F0085404809800000F1E02096
:1006E000C0F8805130BD00000CED00E00249084325
:1006F00002490860704700000000FA050CED00E0B8
:10070000054A002903D01168014311607047116840
:10071000814311607047000030380240054A0029CB
:1007200003D0116801431160704711688143116063
:10073000704700004038024070B5244B196801F042
:100740000C01234C00291ED0224E04291DD008295B
:100750001DD00460196801F0F00109091E4A545CBB
:100760000168E14041601C6804F4E054A40A145D8F
:1007700021FA04F484601B6803F460435B0BD25CD1
:10078000D140C16070BD0460E4E70660E2E70F4A53
:10079000121F1168C1F38055116801F03F0135B196
:1007A000B6FBF1F11468C4F38814614305E0B4FBAF
:1007B000F1F11468C4F3881461431268C2F3014272
:1007C000521C5200B1FBF2F10160C3E7083802404D
:1007D0000024F40040787D01000000201CB50021B9
:1007E000019100912E4A106840F4803010604FF45F
:1007F000A043106800F4003000900198401C019064
:10080000009810B901989842F3D11068800302D57E
:100810000120009000E00091009801283FD120487D
:100820004030016841F0805101601E49086840F481
:10083000404008601A48083003680360036843F4C6
:1008400000430360036843F4A0530360041F164B86
:100850002360136843F08073136013689B01FCD519
:100860000A6842F480320A604A68D203FCD50A68FA
:1008700042F400320A604A689203FCD50B4A40F207
:1008800005711160016821F003010160016841F008
:10089000020101600168C1F381010229FAD11CBD86
:1008A0000038024000700040195A4007003C0240E6
:1008B00010B5502080F31188BFF34F8FBFF36F8FB7
:1008C00001F000FD18B104494FF08050086000208D
:1008D00080F3118810BD000004ED00E010B512484F
:1008E000016841F4700101601048016841F00101A4
:1008F00001600E4A00210832116002680C4B1A4058
:100900000260031D0B4A1A60026822F48022026012
:1009100006480C300160FFF761FF03494FF00060AB
:100920008039086010BD000088ED00E0003802400A
:10093000FFFFF6FE1030002430B587B001210820FB
:10094000FFF7DEFE01214804FFF7E8FE214D0722F4
:1009500006212846FFF705FE072205212846FFF756
:1009600000FE02218DF8191001228DF81B200024B1
:100970008DF81A408DF818104021059105A92846D8
:10098000FFF7B1FD2021059105A92846FFF7ABFD32
:100990004FF4E1300190ADF810400C20ADF80E009E
:1009A000ADF80C40ADF80A40ADF808400A4C01A97A
:1009B000204600F079F8FFF74FFE012240F2255162
:1009C000204600F056F80121204600F01FF807B03D
:1009D00030BD0000000C02400044004010B5084C3F
:1009E00040F22551204600F024F8002807D0204688
:1009F00000F0B8F80349087003490120087010BDE1
:100A0000004400401000002011000020002904D004
:100A1000818941F4005181817047818921F400511D
:100A2000818170470246002012880A4200D00120CE
:100A3000704770B5002440F66A12C1F3421301F00A
:100A40001F05012606FA05F2012B0CD0022B0DD052
:100A5000838A1340090A8E40008830400BB100B1F0
:100A60000124204670BD83891340F3E7038A1340B5
:100A7000F0E710B540F66A13C1F3421301F01F040A
:100A80000121A140012B07D0022B07D014303AB12D
:100A900002680A43026010BD0C30F8E71030F6E738
:100AA00002688A43026010BD7FB504460D46208A65
:100AB00020F44051E88808432082A08941F20C616B
:100AC0008843A9882A8911436A8902431143A18175
:100AD000A08A20F44071A8890843A0826846FFF7E5
:100AE0002BFE1E48844202D01D48844201D1039847
:100AF00000E00298A189090408D500EBC00101EBD0
:100B0000001029684900B0FBF1F007E000EBC001DC
:100B100001EB001029688900B0FBF1F06422B0FB02
:100B2000F2F109010B096FF018056B4300EB83002C
:100B3000A3891D044FF0320307D503EBC000B0FBBF
:100B4000F2F000F00700084306E003EB0010B0FBF2
:100B5000F2F000F00F00084320817FBD001001403B
:100B6000001401408088C0F308007047C1F30801F9
:100B700081807047FEE700000FB4054B10B503A954
:100B8000044A029800F018F810BC5DF814FB00004D
:100B9000E50D00089400002002E008C8121F08C1FB
:100BA000002AFAD170477047002001E001C1121FEE
:100BB000002AFBD1704700002DE9FF4F8BB09A4609
:100BC0000F460446002606E025280BD052460D9914
:100BD0009047641C761C20780028F5D10FB0304671
:100BE000BDE8F08F0025A94601227D4900E00543BC
:100BF00014F8013F203B02FA03F00842F7D12078B5
:100C00002E2817D114F8010F45F004052A280ED01C
:100C10006FF02F022078A0F1300109290AD809EBE2
:100C2000890102EB410100EB0109641CF2E757F86E
:100C3000049B641C20786C280DD004DC4C2812D056
:100C40006A2811D104E074280DD07A280CD10AE06A
:100C500045F4001507E0617845F48015814202D122
:100C6000641C05F58015641C207869283ED006DCDC
:100C70000028B3D063280BD0642804D136E0732851
:100C800010D075285CD052460D999047761CA5E08F
:100C900017F8040B8DF8000000208DF80100E846DD
:100CA000012003E057F8048B4FF0FF3069074FF045
:100CB000000501D40AE06D1C4D450DDA8542FADBD2
:100CC00018F805100029F6D106E06D1C8542FCDB02
:100CD00018F805100029F8D12E4404E018F8010B8B
:100CE00052460D9990476D1EF8D277E000200A9089
:100CF000C5F302504FF00A0B02280CD001CFC117E8
:100D0000021E71F100020CDA0023D0EB030063EB4A
:100D100001012D2208E0FF1D27F00707F7E8020177
:100D2000EEE72A0504D52B228DF82420012203E0CA
:100D3000EA070FD02022F7E70DF12008089218E00B
:100D400000200A90C5F302504FF00A0B022803D08E
:100D500001CF00210022EFE7FF1D27F00707F7E88A
:100D60000201F7E75A460A9BFFF7C0FA303208F84B
:100D7000012D50EA0102F5D1ADEB080000F1200B86
:100D8000680701D44FF00109D94502DDA9EB0B003A
:100D900000E000208146002506E009A85246405D9B
:100DA0000D9990476D1C761C08988542F5DB04E090
:100DB000302052460D999047761CB9F10001A9F1F7
:100DC0000109F5DC05E018F8010B52460D99904732
:100DD000761CBBF10001ABF1010BF4DC641CFAE6FC
:100DE0000928010070B50446064DA1B22846FFF758
:100DF000BDFE80212846FFF715FE0028F9D02046C9
:100E000070BD00000044004000220421052000F0D5
:100E1000BFFF04490860FFF755FBFFF7CBFA00F06E
:100E20006FFEFEE7140000202DE9F04104460F4656
:100E3000174EF5683068001D00F044FC38B9306882
:100E400090F82C1001208840316981433161601C89
:100E500007D137B13168BDE8F041091D0D4800F0F8
:100E60006ABC2C4430684460AC4206D23168B06B36
:100E7000091DBDE8F04100F046BC3168706B091DEA
:100E800000F041FCB06A844200D2B462BDE8F08157
:100E9000200000204C01002070B5044600F058FCF2
:100EA0001D4DA868401CA860286810B1686938B159
:100EB0000CE02C60A868012808D100F065F905E075
:100EC0002868E16AC06A884200D82C60686A401CC1
:100ED00068626064E06A01212A69814011432961E6
:100EE0000E4900EB800001EB8000211D00F023FC87
:100EF00000F04EFC686900280CD02868E16AC06ADE
:100F0000884207D206494FF080500860BFF34F8FE8
:100F1000BFF36F8F70BD00002000002098000020FC
:100F200004ED00E010B500F013FC0C4C206880B913
:100F30000B4800F0DAFB0A48143000F0D6FB0848F2
:100F4000E0601430206100220C210A2000F020FF14
:100F50002060BDE8104000F01BBC00005C000020D9
:100F60006001002070B50C4D0C4E11E000F0F0FB5C
:100F7000F068C468201D00F0A5FBA868401EA860AA
:100F80006868401E686000F003FC204600F04AF8E4
:100F900068680028EAD170BD2000002038010020D8
:100FA00030B40B46026C002A0CD0C1681144C160F9
:100FB0004468A14201D30168C160C16830BC1846D1
:100FC000FFF770B930BC70472DE9F0410446174671
:100FD0000026A56B226C002A1FD07FB1E068FFF7C6
:100FE00061F9E168206C091AE1602268914202D23D
:100FF0006168081AE060022F0DD00EE0A068FFF7CC
:1010000051F9216CA0680844A0606168884204D34B
:101010002068A06001E005B16D1E6D1CA56330461F
:10102000BDE8F08110B50446206B00F0C7FB2046F8
:10103000BDE8104000F0C2BB0749CA68116800292A
:1010400004D00021016019B1002070470121F9E7A7
:10105000D0680068704700005C0000204FF49631B3
:101060000F48420706D0C01D20F007000C49411A66
:10107000C1F596310B4A10600023536001440839D2
:1010800021F00701103A11604B600B600B1A4360AE
:1010900001604068906050604FF00040D060704741
:1010A000880100208C000020074E4FF08054074D2F
:1010B000FFF758FF30680128FAD92C60BFF34F8F33
:1010C000BFF36F8FF4E700009800002004ED00E00C
:1010D00070B51D46049C002909D02260E06321649C
:1010E0000121204600F076FE84F84C5070BD24604B
:1010F000F4E72DE9F0478146DDE908580A9C0E46E1
:1011000017469A46B900A522206BFFF7DDF8206B41
:101110007F1E00EB870020F00707780707D05020DC
:1011200080F31188BFF34F8FBFF36F8FFEE700206E
:101130002218315C82F83410315C11B1401C102847
:10114000F6D3002684F84360052D00D30425E5621C
:10115000201D00F0D5FA04F1180000F0D1FA246146
:10116000C5F10500A0616462E66484F850605246EF
:101170004946384600F094FA2060B8F1000F01D0DB
:10118000C8F80040BDE8F08770B50024124D04EBAC
:10119000840005EB800000F0A8FA641C052CF6D34F
:1011A0000D48643000F0A1FA0B48783000F09DFA49
:1011B00009488C3000F099FA0748A03000F095FA01
:1011C0000548B43000F091FA0349044864314163A2
:1011D0001431816370BD00009800002020000020C1
:1011E00030B5134900E011460A688242FBD34B68D0
:1011F0005C18844203D140681844486008460D6872
:1012000044682318AB420DD1094B103B1B689A422E
:1012100006D05268224442600A681268026002E006
:10122000036000E00260814200D0086030BD000031
:101230008C00002070B50024416000610C4D91428B
:101240000AD8D11A8269914201D301240EE0011D0E
:10125000286900F058FA09E09A4203D2994201D372
:10126000012403E0011DE86800F04DFA204670BD3E
:101270005C00002010B5044600F06AFAA06B20B1B3
:10128000002400F085FA204610BD0124F9E710B5CE
:10129000044600F05DFAA06BE16B884201D10124A5
:1012A00000E0002400F074FA204610BDF8B50546B1
:1012B0000E461448C068C068C468201D00F002FAD9
:1012C000E069012810D1A0692B4641193246204619
:1012D000FFF7B0FF40B100200346014600902A46C8
:1012E000204601F01FF928B1616A01B02046BDE82F
:1012F000F0400847502080F31188BFF34F8FBFF3B1
:101300006F8FFEE75C00002030B585B02B4D4BE0C1
:101310000298002848DB049C606910B1201D00F091
:10132000D1F901A800F094F8024602980A283BD2AD
:10133000DFE800F00505053A263705053A2603984B
:10134000A169034601442046FFF774FF00B3616AB8
:1013500020468847E069012826D1002000900398A4
:10136000A169002342181946204601F0DBF878B93C
:10137000502080F31188BFF34F8FBFF36F8FFEE7CC
:101380000398A06128B1811813462046FFF752FF49
:101390000AE0502080F31188BFF34F8FBFF36F8FA7
:1013A000FEE7204600F00AFA002202A9286800F0B1
:1013B00069FE0028ACD105B030BD00005C00002003
:1013C000F8B506460D4600F031FC684600F040F8DE
:1013D0000446009810B101F019F8F8BD45B9A642CD
:1013E00006D801F013F821463046FFF75FFFF8BD3D
:1013F0000C481DB10169096891B10025311B2A46CD
:10140000006800F03FFA01F001F80028EFD106492A
:101410004FF080500860BFF34F8FBFF36F8FF8BD60
:101420000125EBE75C00002004ED00E00748416B7C
:101430000968002905D0416BC968C968496881629B
:1014400070474FF0FF31816270470000200000209C
:1014500070B5054600F030FF0446074EB068844280
:1014600004D200F00BF80120286001E00020286081
:10147000B460204670BD00005C000020F8B5194E35
:101480001FE0C0680568C468201D00F01BF9616A90
:1014900020468847E069012813D1A0692844A84262
:1014A00006D960602461211DF06800F02CF908E085
:1014B00000200346014600902A46204601F032F8FB
:1014C00040B1F06801680029DBD1F0683169F16052
:1014D0003061F8BD502080F31188BFF34F8FBFF308
:1014E0006F8FFEE75C00002009484068401C07D071
:1014F000502080F31188BFF34F8FBFF36F8FFEE74B
:10150000502080F31188BFF34F8FBFF36F8FFEE73A
:1015100070000020002100280AD00B4B42699A423B
:101520000FD1806AA3F1280290420AD040B108E0AE
:10153000502080F31188BFF34F8FBFF36F8FFEE70A
:1015400001210846704700004C01002008B568469C
:10155000FFF772FD0099FFF733FFFFF7D5FEF6E7BF
:101560002DE9F041044600F0F3F894F9455004F1F8
:10157000240609E0606A48B1304600F009FF08B16E
:1015800000F014FA6D1E6DB2002DF3DC4FF0FF3643
:1015900084F8456000F0FCF800F0DAF894F9445063
:1015A00004F1100709E0206948B1384600F0F0FE68
:1015B00008B100F0FBF96D1E6DB2002DF3DC84F86C
:1015C0004460BDE8F04100F0E3B800002DE9F041CF
:1015D0000546002600F02AFB304F386808B9FFF7AF
:1015E0003DFDF86805424AD18DB1083568070ED037
:1015F00005F00700C0F108000544680707D0502037
:1016000080F31188BFF34F8FBFF36F8FFEE7B5B341
:101610007868854233D8214910310846046801E0D2
:10162000214604466068A84202D220680028F7D10B
:101630003868844223D00E680836206808606068E5
:10164000411B10290ED96019420707D0502080F3A2
:101650001188BFF34F8FBFF36F8FFEE74160656066
:10166000FFF7BEFD61687868401A7860BA689042FA
:1016700000D2B860F868014361600020206000F08B
:10168000C5FE700707D0502080F31188BFF34F8F3D
:10169000BFF36F8FFEE73046BDE8F0817C0000208D
:1016A00024384FF08073036221F00101C1610449C5
:1016B000816142606FF0020140F82019704700001C
:1016C000E91400080169D0E901329A60D0E90123E8
:1016D0005A604A68824201D182684A6000220261EF
:1016E0000868401E08600868704700F10801416002
:1016F0004FF0FF328260C1600161002101607047DC
:1017000000210161704730B50C68621C02D000F105
:10171000080202E0026904E01A4653681D68A54207
:10172000FAD953684B6099608A605160086101681A
:10173000491C016030BD42684A6093688B609368C1
:101740005960916008610168491C016070470000A0
:10175000502080F31188BFF34F8FBFF36F8F0A497A
:101760004868401C486001280CD10848006810F007
:10177000FF0F07D0502080F31188BFF34F8FBFF3C6
:101780006F8FFEE7704700007000002004ED00E05E
:1017900009494868002806D0401E4860002801D149
:1017A00080F311887047502080F31188BFF34F8F6A
:1017B000BFF36F8FFEE700007000002070B50028B7
:1017C00027D008380446134D6068E968084207D1FD
:1017D000502080F31188BFF34F8FBFF36F8FFEE768
:1017E00022683AB1502080F31188BFF34F8FBFF3C6
:1017F0006F8FFEE78843606000F018FA60686968E0
:10180000084468602046FFF7EBFCBDE8704000F03C
:10181000FDBD70BD7C0000204FF0E0200021016183
:101820008161024941610721016170471FBF0200C8
:1018300010B5FEF721FD114910280ED300F1E0206C
:1018400090F8F0030A78904207D2502080F3118874
:10185000BFF34F8FBFF36F8FFEE7094800688968B9
:1018600000F4E060884207D9502080F31188BFF36C
:101870004F8FBFF36F8FFEE710BD00007000002098
:101880000CED00E070B504460D461646FFF760FF0C
:1018900094F944304FF000005B1C01D184F84400FF
:1018A00094F94510491C01D184F84500FFF770FFF9
:1018B000A06B28B93246294604F1240000F096F8BE
:1018C0002046BDE87040FFF74BBE000010B5024651
:1018D0000020002A12D00F48006B38B1502080F34E
:1018E0001188BFF34F8FBFF36F8FFEE700F09EF9B3
:1018F00000211046FFF798FA00F088FD002807D174
:1019000005494FF080500860BFF34F8FBFF36F8FD2
:1019100010BD00002000002004ED00E002490A6A2A
:101920000260C96841607047200000204FF40055F4
:10193000124E134C134F1AE001213846FEF748FEB1
:101940000128F9D0606800F013F929463046FEF707
:101950003FFE012808D129463046FEF739FE01280E
:10196000F9D0606800F07EF81E20FFF7AFFF01217C
:101970003846FEF72DFE0128DED0E6E700080240DB
:101980001400002000000240074D4FF480644FF423
:10199000FA77AE1E2C803846FFF798FF3480384621
:1019A000FFF794FFF6E700001A1C024001490120EE
:1019B000C86170472000002010B50C4600280AD0EE
:1019C000094909681831FFF79EFE2046BDE810401E
:1019D0000121FFF729BA502080F31188BFF34F8F00
:1019E000BFF36F8FFEE700002000002070B50D46AA
:1019F000144600280DD00B4909681831FFF79BFEEB
:101A00000CB14FF0FF3521462846BDE87040FFF786
:101A10000BBA502080F31188BFF34F8FBFF36F8F45
:101A2000FEE700002000002008B54FF47A75064C50
:101A30002A466946206800F025FB0128F8D103A05A
:101A40000099FFF799F8F3E7140000205468652027
:101A5000726563206461746120697320256C642061
:101A60000A00000070B5044600282BD01A4D2868E3
:101A700084422FD0FFF76CFE2046FFF74BFDE8B104
:101A8000201DFFF71FFEE06A01212A6981401143F2
:101A90002961124900EB800001EB8000211DFFF756
:101AA0004AFEE06A2968C96A884207D30C494FF0A8
:101AB00080500860BFF34F8FBFF36F8FBDE8704059
:101AC000FFF766BE502080F31188BFF34F8FBFF33E
:101AD0006F8FFEE770BD00002000002098000020FE
:101AE00004ED00E008B50090044C4FF47A75002333
:101AF0002A466946206800F0B3F9F8E71400002090
:101B00001CB517480024CDE900402346802215A1CA
:101B1000164800F093FB012801D100F0DDFC0128FC
:101B200009D0401C1AD1502080F31188BFF34F8F89
:101B3000BFF36F8FFEE7502080F31188BFF34F8F04
:101B4000BFF36F8F06484FF0FF312C3881620121BF
:101B50004161C460BDE81C4000F0A0B81CBD00009D
:101B60004C00002049444C4500000000A91000082A
:101B700070B50446FFF7ECFD294D04B92C68201D13
:101B8000FFF7A0FD58B9E06A264A00EB800152F841
:101B9000211021B901218140286988432861A06A68
:101BA00018B104F11800FFF78DFD1E48211DB43057
:101BB000FFF7C1FD94F850000026012801D184F8F8
:101BC0005060FFF7E5FD686928B1FFF7C1FDFFF739
:101BD0002DFCFFF7DDFD2868844213D1686990B1C0
:101BE000286B38B1502080F31188BFF34F8FBFF3BB
:101BF0006F8FFEE70C494FF080500860BFF34F8FA6
:101C0000BFF36F8F70BD0748B4300068A968884281
:101C100001D12E6070BDBDE8704000F00FB800002B
:101C2000200000209800002004ED00E00248016B35
:101C3000491C01637047000020000020154A106B0A
:101C4000002802D00120D06170470020D0611069C7
:101C5000B0FA80F0C0F11F000F4900EB800051F88E
:101C6000203073B101EB800041684968416000F1A8
:101C70000803994201D1496841604068C06810601A
:101C80007047502080F31188BFF34F8FBFF36F8FE1
:101C9000FEE7000020000020980000201CB5374817
:101CA0000168374A914207D1502080F31188BFF371
:101CB0004F8FBFF36F8FFEE700683149491E88429E
:101CC00007D1502080F31188BFF34F8FBFF36F8F80
:101CD000FEE72C4908780190FF20087008780090F2
:101CE0009DF800009DF8002000F0F000904207D021
:101CF000502080F31188BFF34F8FBFF36F8FFEE743
:101D00009DF80000204A00F05000107007209060FD
:101D100006E09068401E90609DF800004000009032
:101D20009DF800000006F4D49068032807D05020E6
:101D300080F31188BFF34F8FBFF36F8FFEE74FF42F
:101D400040709060019808700C482030016841F4A0
:101D500070010160016841F070410160FFF75CFDB6
:101D600000205060FEF750FA0848016841F04041F9
:101D70000160FEF735FA00201CBD000000ED00E018
:101D800071C20F4100E400E07000002034EF00E079
:101D9000F8B505460E461746002D11D0C6B105FB15
:101DA00006F05030FFF712FC04463CB104F150023B
:101DB0003B46314628460094FFF78AF92046F8BD95
:101DC000502080F31188BFF34F8FBFF36F8FFEE772
:101DD0000020E6E770B504460D46002C25D0FFF73D
:101DE000B7FCD4E90F20216802FB001161600021DB
:101DF000A1632168A160E06B2268216C401E00FB9A
:101E00000121E1604FF0FF3084F8440084F8450080
:101E100004F110008DB1FFF768FC04F12400FFF716
:101E200064FCFFF7B5FC012070BD502080F31188E1
:101E3000BFF34F8FBFF36F8FFEE721690029F0D00A
:101E400000F0A6FA0028ECD004494FF0805008605A
:101E5000BFF34F8FBFF36F8FE3E7000004ED00E0A7
:101E60002DE9FF4782B004468A461E460025002C15
:101E700003D0BAF1000F08D011E0502080F3118890
:101E8000BFF34F8FBFF36F8FFEE7206C38B1502048
:101E900080F31188BFF34F8FBFF36F8FFEE7022EE1
:101EA0000AD1E06B012807D0502080F31188BFF3DE
:101EB0004F8FBFF36F8FFEE700F0F0F948B9049839
:101EC00038B1502080F31188BFF34F8FBFF36F8F6D
:101ED000FEE74FF000094FF08057DFF8E480FFF78E
:101EE00037FCA06BE16B884205D3022E03D0049827
:101EF00008B325B327E0324651462046FFF764F881
:101F0000616A59B104F1240000F042FA68B1C8F8DE
:101F10000070BFF34F8FBFF36F8F06E028B1C8F892
:101F20000070BFF34F8FBFF36F8FFFF731FC0120BD
:101F300006B0BDE8F087FFF72BFC0020F8E7684605
:101F4000FFF7ECFC0125FFF723FCFFF76FFEFFF71F
:101F5000FFFB94F94400401C01D184F8449094F9AB
:101F60004500401C01D184F84590FFF711FC04A9FD
:101F7000684600F025F930B12046FFF7F1FA00F08D
:101F800045FA0020D4E72046FFF781F990B104F12B
:101F900010000499FFF710FD2046FFF7E1FA00F06A
:101FA00035FA00289BD1C8F80070BFF34F8FBFF3FC
:101FB0006F8F94E72046FFF7D3FA00F027FA8EE7F9
:101FC00004ED00E02DE9F0470446894690461F469F
:101FD000002C03D0B9F1000F08D011E0502080F39D
:101FE0001188BFF34F8FBFF36F8FFEE7206C38B1BE
:101FF000502080F31188BFF34F8FBFF36F8FFEE740
:10200000022F0AD1E06B012807D0502080F31188FD
:10201000BFF34F8FBFF36F8FFEE7FFF709FC502030
:10202000EFF3118680F31188BFF34F8FBFF36F8FEB
:10203000A06BE16B884206D3022F04D0002086F308
:102040001188BDE8F08794F945503A464946204644
:10205000FEF7BAFF681C04D06D1C84F845500120BF
:10206000EDE7606A0028FAD004F1240000F090F94E
:102070000028F4D0B8F1000FF1D00120C8F800001A
:10208000EDE700002DE9F74783B004468A460026B5
:10209000002C03D0BAF1000F08D011E0502080F3DB
:1020A0001188BFF34F8FBFF36F8FFEE7206C38B1FD
:1020B000502080F31188BFF34F8FBFF36F8FFEE77F
:1020C00000F0ECF848B9059838B1502080F3118839
:1020D000BFF34F8FBFF36F8FFEE700274FF080589D
:1020E000DFF8D890FFF734FBA56BC5B15146204609
:1020F000FEF756FF6D1EA563206950B104F1100074
:1021000000F046F928B1C9F80080BFF34F8FBFF344
:102110006F8FFFF73DFB012006B0BDE8F087059803
:1021200008B126B107E0FFF733FB0020F4E701A870
:10213000FFF7F4FB0126FFF72BFBFFF777FDFFF717
:1021400007FB94F94400401C01D184F8447094F9D1
:102150004500401C01D184F84570FFF719FB05A923
:1021600001A800F02DF858B12046FFF7F9F900F06A
:102170004DF92046FFF77EF80028B3D00020CBE7CA
:102180002046FFF777F890B104F124000599FFF796
:1021900013FC2046FFF7E4F900F038F90028A1D13C
:1021A000C9F80080BFF34F8FBFF36F8F9AE72046C7
:1021B000FFF7D6F900F02AF994E7000004ED00E0FB
:1021C0002DE9F04105460C46002D11D0C4B1FFF7B2
:1021D000BFFA194EF0686B68C11A2268571C17D0F5
:1021E0002F68366AB74215D0834213D801241DE008
:1021F000502080F31188BFF34F8FBFF36F8FFEE73E
:10220000502080F31188BFF34F8FBFF36F8FFEE72D
:1022100000240BE08A4206D9501A20602846FFF7B6
:102220007DFB002402E0002020600124FFF7B0FACB
:102230002046BDE8F0810000200000202DE9FF5F6E
:102240008146DDE90E788A4616469B46B000FFF7C8
:10225000BDF9054628000AD05420FFF7B7F9044617
:102260000CB1256304E02846FFF7A8FA00E000243B
:102270008CB10020CDE90240CDE900785B463246C2
:1022800051464846FEF735FF2046FEF705FE012081
:1022900004B0BDE8F09F4FF0FF30F9E70548416911
:1022A000002903D0006B18B100207047012070474F
:1022B00002207047200000200148C06870470000DD
:1022C000200000202DE9F04100262F4F386B002818
:1022D00008D0B869401CB861F86900B101263046E1
:1022E000BDE8F081FD686D1CFD609DB9786B0068EC
:1022F00038B1502080F31188BFF34F8FBFF36F8F39
:10230000FEE7786BB96B7963B863386A401C386252
:10231000FFF78CF8B86ADFF8748085420DD3786BCC
:10232000006838B1786BC068C468606885420ED2B6
:10233000B86202E04FF0FF30B8623868C06A00EB64
:10234000800058F820000128C6D90126C4E7201DC6
:10235000FFF7B8F9A06A18B104F11800FFF7B2F955
:10236000E06A01213A6981401143396100EB800044
:1023700008EB8000211DFFF7DEF9E06A3968C96AC1
:102380008842CCD30126CAE7200000209800002014
:102390002DE9F041C068C468002C15D004F1180084
:1023A0000746FFF78FF9174D2A6B0126A2B1394670
:1023B0001548FFF7C0F9E06A2968C96A88421ED942
:1023C0000120EE61BDE8F081502080F31188BFF359
:1023D0004F8FBFF36F8FFEE7201DFFF773F9E06AA1
:1023E0002A6906FA00F111432961074900EB8000D0
:1023F0008C3901EB8000211DFFF79DF9DBE7002000
:10240000E0E7000020000020240100202DE9F04139
:10241000002400272D4D286B002807D0FFF798F9DE
:10242000286B401E2863286B40B14AE0502080F39F
:102430001188BFF34F8FBFF36F8FFEE7A868E8B333
:10244000DFF88C8001261EE0D8F80C00C46804F187
:102450001800FFF737F9201DFFF734F9E06A2A6901
:1024600006FA00F111432961194900EB80008C390B
:1024700001EB8000211DFFF75EF9E06A2968C96A57
:10248000884200D3EE61D8F800000028DCD10CB1FE
:10249000FEF7CCFFAC6944B1FFF714FF00B1EE6169
:1024A000641E002CF8D10020A861E86930B1012732
:1024B000084938070860BFF34F8F00E001E0BFF321
:1024C0006F8FFFF765F93846BDE8F08120000020E6
:1024D0002401002004ED00E01CB50024FEF722FDDD
:1024E0000C48006858B10B480221001DCDE90010CE
:1024F000CA01002308A10A48FFF7A0FE04460CB158
:1025000020461CBD502080F31188BFF34F8FBFF3CE
:102510006F8FFEE75C000020546D722053766300DD
:102520004D150008FEB50646089F9C460020002E6B
:1025300013D0154D2C68002C0ED0009101920296FC
:10254000062919DAFFF7AAFE02280ED000231A4640
:1025500069462868FFF784FCFEBD502080F311888F
:10256000BFF34F8FBFF36F8FFEE700233A466946F4
:102570002868FFF775FCFEBD0023624669462046C9
:10258000FFF720FDFEBD00005C000020AC25000828
:102590000000002098000000980B00084426000866
:1025A00098000020F0300100A80B00080000000097
:1025B00001020304010203040607080900000000E9
:1025C000000000000000000000000000000000000B
:1025D00000000000000000000000000000000000FB
:1025E00000000000000000000000000000000000EB
:1025F00000000000000000000000000000000000DB
:1026000000000000000000000000000000000000CA
:1026100000000000000000000000000000000000BA
:10262000AAAAAAAA00000000000000000000000002
:10263000000000000000000000000000000000009A
:042640000000000096
:04000005080001AD41
:00000001FF
